17:58:19.955499 IP 129.21.63.125.58273 > 129.21.63.255.1947: UDP, length 40
	0x0000:  4500 0044 22f2 0000 8011 9610 8115 3f7d
	0x0010:  8115 3fff e3a1 079b 0030 71a2 4f4a 4f6e
	0x0020:  7458 6b58 7a50 3338 7932 4a57 4177 5953
	0x0030:  7832 3839 7149 7443 3738 6b5a 6f4a 4933
	0x0040:  4c77 5941
17:58:19.955556 IP6 fe80::2e21:310f:e94e:6438 > ff02::1: ICMP6, router advertisement, length 80
	0x0000:  6000 0000 0050 3aff fe80 0000 0000 0000
	0x0010:  2e21 310f e94e 6438 ff02 0000 0000 0000
	0x0020:  0000 0000 0000 0001 8600 4e05 4000 0708
	0x0030:  0000 0000 0000 0000 0101 2c21 314e 6b78
	0x0040:  1903 0000 0000 0708 2620 008d 8000 0000
	0x0050:  0aba 00ca daba 00ec 0304 40c0 0027 8d00
	0x0060:  0009 3a80 0000 0000 2620 008d 8000 103c
	0x0070:  0000 0000 0000 0000
17:58:19.958884 IP6 fe80::e9d1:4b97:70b6:34e3 > ff02::16: HBH ICMP6, multicast listener report v2, 4 group record(s), length 88
	0x0000:  6000 0000 0060 0001 fe80 0000 0000 0000
	0x0010:  e9d1 4b97 70b6 34e3 ff02 0000 0000 0000
	0x0020:  0000 0000 0000 0016 3a00 0502 0000 0100
	0x0030:  8f00 2c8c 0000 0004 0400 0000 ff02 0000
	0x0040:  0000 0000 0000 0001 ff85 72a3 0400 0000
	0x0050:  ff02 0000 0000 0000 0000 0001 fff1 b780
	0x0060:  0400 0000 ff02 0000 0000 0000 0000 0000
	0x0070:  0000 00fb 0400 0000 ff02 0000 0000 0000
	0x0080:  0000 0001 ffb6 34e3
